:020000020000FC
:060000005DC01895189583
:1000B8000C948E00079A0F9A3AD180D15AD1F2E067
:1000C800E6E584D156D160EF68B90FEF2598249AF8
:1000D8002C9A609A6898619A699830E00091900427
:1000E800026000939004789403E00093E60503E12E
:1000F8000093010A04E60093260A00E00093270A09
:100108004093380A60E06093390A0BE00093000AD4
:10011800EBCFFECFF8940F930FB70F93009189049C
:1001280000FD05D00F910FBF0F91789418951AB163
:1001380010955BD1133449F0113499F07BD00AC083
:1001480018D101E0009389040895339501E00093E4
:1001580089040895303051F0313011F030E0FACF91
:100168003DC05EC001E0009389040895D0E4C0E07A
:100178002D852C872E852D871E874E857D858C8520
:100188004053705380530AE0809F802D870F809FD3
:10019800802D480F442E012D0130D8F4453680F2C9
:1001A80001E0009389040895142D412F313009F09E
:1001B80074E6672F641B403041F0689A4A95000046
:1001C8000000E1F7603029F068986A9500000000A7
:1001D800E1F701E000938904089522C0D0E4C0E06B
:1001E8002E8D2D8F2F8D2E8F1F8F4F8D7E8D8D8D68
:1001F8004053705380530AE0809F802D870F809F63
:10020800802D480F742F012D013018F7753620F016
:1002180001E000938904089564E6769F702D90CFDD
:10022800CDD0A7D0F2E0E6E5D1D0A3D001E000938D
:1002380089040895123439F0143429F0153419F06A
:10024800163409F0089501E00093890408950144E3
:100258007479204379636C65203D20303030255413
:10026800204D756C7469706C79203D2030303100F8
:10027800000000008F938FE08A95F1F78F91089521
:10028800F7DF6A95E9F77A95D9F7089560E074E0A1
:10029800F7DF08950F93079A0F9A049A0C98069A15
:1002A8000E9A079A0F9AA39AAB9A03E20093400911
:1002B80007E00093410905E5AB9A0F98000000009C
:1002C80000000000009344090091430907FFFCCF98
:1002D8000F9A0F9108950F930091430907FFFCCFE0
:1002E80000914409AB980F980F910000000000009E
:1002F8000000009344090091430907FFFCCF0F9ABF
:1003080008950F930091430907FFFCCF009144091A
:10031800AB9A0F980F9100000000000000000093B6
:1003280044090091430907FFFCCF0F9A0895B2DFF3
:10033800ADDF09E3D0DF9CDF09E3CDDF99DF0EE114
:10034800CADF96DF0FE7C7DF93DF05E5C4DF90DF7D
:100358000CE6C1DF9BDF9ADF99DF98DF97DF0CE0BF
:10036800BADF86DF06E0B7DF83DF089501E0B3DF99
:100378007FDF90DF40E14F93F0E4E0E000E8ABDF9F
:1003880077DF0191BEDF74DF4A95D9F74F914F931C
:10039800F0E4E0E100E99FDF6BDF0191B2DF68DFA5
:1003A8004A95D9F74F91F0E4E0E200EA94DF60DF84
:1003B8000191A7DF5DDF4A95D9F7089590E3A0E2A0
:1003C800F0E4E0E0A1939A95E9F70895D0E4C0E05D
:1003D8000591013021F06096023009F06096059190
:1003E800003011F00993FBCF08951F7018F088941E
:1003F80010E00895F4E0EAE050E0E10FF51F1491F1
:100408000895434230414439383745363534463308
:0204180032317F
:00000001FF
